:020000040000fa
:080000000002040000000000f2
:020000040000fa
:04000800da02000018
:020000040000fa
:04000c00da02000014
:020000040000fa
:04001000da02000010
:020000040000fa
:04001400da0200000c
:020000040000fa
:04001800da02000008
:020000040000fa
:04001c00da02000004
:020000040000fa
:04002000da02000000
:020000040000fa
:04002400da020000fc
:020000040000fa
:04002800da020000f8
:020000040000fa
:04002c00da020000f4
:020000040000fa
:04003000da020000f0
:020000040000fa
:04003400da020000ec
:020000040000fa
:04003800da020000e8
:020000040000fa
:04003c00da020000e4
:020000040000fa
:04004000da020000e0
:020000040000fa
:04004400c8020000ee
:020000040000fa
:04004800da020000d8
:020000040000fa
:04004c00da020000d4
:020000040000fa
:04005000da020000d0
:020000040000fa
:04005400da020000cc
:020000040000fa
:04005800da020000c8
:020000040000fa
:04005c00da020000c4
:020000040000fa
:04006000da020000c0
:020000040000fa
:04006400da020000bc
:020000040000fa
:04006800da020000b8
:020000040000fa
:04006c00da020000b4
:020000040000fa
:04007000da020000b0
:020000040000fa
:04007400da020000ac
:020000040000fa
:04007800da020000a8
:020000040000fa
:04007c00da020000a4
:020000040000fa
:04008000da020000a0
:020000040000fa
:04008400da0200009c
:020000040000fa
:04008800da02000098
:020000040000fa
:04008c00da02000094
:020000040000fa
:04009000da02000090
:020000040000fa
:04009400da0200008c
:020000040000fa
:04009800da02000088
:020000040000fa
:04009c00da02000084
:020000040000fa
:0400a000da02000080
:020000040000fa
:0400a400da0200007c
:020000040000fa
:0400a800da02000078
:020000040000fa
:0400ac00da02000074
:020000040000fa
:0400b000da02000070
:020000040000fa
:0400b400da0200006c
:020000040000fa
:0400b800da02000068
:020000040000fa
:0400bc00da02000064
:020000040000fa
:0400c000da02000060
:020000040000fa
:0400c400da0200005c
:020000040000fa
:0400c800da02000058
:020000040000fa
:0400cc00da02000054
:020000040000fa
:0400d000da02000050
:020000040000fa
:0400d400da0200004c
:020000040000fa
:0400d800da02000048
:020000040000fa
:0400dc00da02000044
:020000040000fa
:0400e000da02000040
:020000040000fa
:0400e400da0200003c
:020000040000fa
:0400e800da02000038
:020000040000fa
:0400ec00da02000034
:020000040000fa
:0400f000da02000030
:020000040000fa
:0400f400da0200002c
:020000040000fa
:0400f800da02000028
:020000040000fa
:0400fc00da02000024
:020000040000fa
:04010000da0200001f
:020000040000fa
:04010400da0200001b
:020000040000fa
:04010800da02000017
:020000040000fa
:04010c00da02000013
:020000040000fa
:04011000da0200000f
:020000040000fa
:04011400da0200000b
:020000040000fa
:04011800da02000007
:020000040000fa
:04011c00da02000003
:020000040000fa
:04012000da020000ff
:020000040000fa
:04012400da020000fb
:020000040000fa
:04012800da020000f7
:020000040000fa
:04012c00da020000f3
:020000040000fa
:04013000da020000ef
:020000040000fa
:04013400da020000eb
:020000040000fa
:04013800da020000e7
:020000040000fa
:04013c00da020000e3
:020000040000fa
:04014000da020000df
:020000040000fa
:04014400da020000db
:020000040000fa
:04014800da020000d7
:020000040000fa
:04014c00da020000d3
:020000040000fa
:04015000da020000cf
:020000040000fa
:04015400da020000cb
:020000040000fa
:04015800da020000c7
:020000040000fa
:04015c00da020000c3
:020000040000fa
:04020800da02000016
:020000040000fa
:04020c00da02000012
:020000040000fa
:04021000da0200000e
:020000040000fa
:04021400da0200000a
:020000040000fa
:04021800da02000006
:020000040000fa
:04021c00da02000002
:020000040000fa
:04022000da020000fe
:020000040000fa
:04022400da020000fa
:020000040000fa
:04022800da020000f6
:020000040000fa
:04022c00da020000f2
:020000040000fa
:04023000da020000ee
:020000040000fa
:04023400da020000ea
:020000040000fa
:04023800da020000e6
:020000040000fa
:04023c00da020000e2
:020000040000fa
:04024000da020000de
:020000040000fa
:04024400c8020000ec
:020000040000fa
:04024800da020000d6
:020000040000fa
:04024c00da020000d2
:020000040000fa
:04025000da020000ce
:020000040000fa
:04025400da020000ca
:020000040000fa
:04025800da020000c6
:020000040000fa
:04025c00da020000c2
:020000040000fa
:04026000da020000be
:020000040000fa
:04026400da020000ba
:020000040000fa
:04026800da020000b6
:020000040000fa
:04026c00da020000b2
:020000040000fa
:04027000da020000ae
:020000040000fa
:04027400da020000aa
:020000040000fa
:04027800da020000a6
:020000040000fa
:04027c00da020000a2
:020000040000fa
:04028000da0200009e
:020000040000fa
:04028400da0200009a
:020000040000fa
:04028800da02000096
:020000040000fa
:04028c00da02000092
:020000040000fa
:04029000da0200008e
:020000040000fa
:04029400da0200008a
:020000040000fa
:04029800da02000086
:020000040000fa
:04029c00da02000082
:020000040000fa
:0402a000da0200007e
:020000040000fa
:0402a400da0200007a
:020000040000fa
:0402a800da02000076
:020000040000fa
:0402ac00da02000072
:020000040000fa
:0402b000da0200006e
:020000040000fa
:0402b400da0200006a
:020000040000fa
:0402b800da02000066
:020000040000fa
:0402bc00da02000062
:020000040000fa
:0402c000da0200005e
:020000040000fa
:0402c400da0200005a
:020000040000fa
:0402c800da02000056
:020000040000fa
:0402cc00da02000052
:020000040000fa
:0402d000da0200004e
:020000040000fa
:0402d400da0200004a
:020000040000fa
:0402d800da02000046
:020000040000fa
:0402dc00da02000042
:020000040000fa
:0402e000da0200003e
:020000040000fa
:0402e400da0200003a
:020000040000fa
:0402e800da02000036
:020000040000fa
:0402ec00da02000032
:020000040000fa
:0402f000da0200002e
:020000040000fa
:0402f400da0200002a
:020000040000fa
:0402f800da02000026
:020000040000fa
:0402fc00da02000022
:020000040000fa
:04030000da0200001d
:020000040000fa
:04030400da02000019
:020000040000fa
:04030800da02000015
:020000040000fa
:04030c00da02000011
:020000040000fa
:04031000da0200000d
:020000040000fa
:04031400da02000009
:020000040000fa
:04031800da02000005
:020000040000fa
:04031c00da02000001
:020000040000fa
:04032000da020000fd
:020000040000fa
:04032400da020000f9
:020000040000fa
:04032800da020000f5
:020000040000fa
:04032c00da020000f1
:020000040000fa
:04033000da020000ed
:020000040000fa
:04033400da020000e9
:020000040000fa
:04033800da020000e5
:020000040000fa
:04033c00da020000e1
:020000040000fa
:04034000da020000dd
:020000040000fa
:04034400da020000d9
:020000040000fa
:04034800da020000d5
:020000040000fa
:04034c00da020000d1
:020000040000fa
:04035000da020000cd
:020000040000fa
:04035400da020000c9
:020000040000fa
:04035800da020000c5
:020000040000fa
:04035c00da020000c1
:020000040000fa
:100400004f8020000edf20000e0188000000000059
:10041000000020000000e000020032000001200087
:100420002002880014000700640007000000e000bc
:1004300003003a008047200001002000020037003e
:100440000000200001002000810f70000100320038
:1004500014000700000020000000e000020032004d
:100460000000020000000000e002020000000000a6
:100470000040da000000fe004440a9000000200017
:100480000000e0000300320000002000a00188000e
:100490004440a800000006008a1f78008b1f7800e7
:1004a0000000060091018800800478000000eb0045
:1004b0001a003700e284440032a0b4009905ba0063
:1004c000e284440032a0b4009906ba00e2844400f9
:1004d00032a0b4000006eb00476fde00fd07b2005b
:1004e000636ce10003003a00ebff07000000eb0043
:1004f0000a003700606ce10004003a00005deb0088
:100500008b05e900fdff3e00040037006168e10053
:10051000010032000086eb000b00070019c7ba008b
:100520001905ba000e04e00003003a000a00e000da
:10053000e0ff3a0000000600fe07b2009e018800be
:100540008a047800f5ff3700395dba008b05e900b1
:100550000c003200295dba008b05e900080032006a
:100560000c00e00003003a00e284440032a0b40032
:10057000f5ff370019ddba008b05e900faff3a00f4
:100580008904e800e184440032a0b40000000600c1
:10059000801f78000000fa0084e0a90011e1a900a2
:1005a00010002000104088000080fa004f00780002
:1005b000004006000040da000000fe0000000500d8
:020000040000fa
:1005c0000000fa00c10007009a000700cd02a90050
:1005d000cd02a90001003700cd02a900101680004d
:1005e000640060000000e0001e0032001016800071
:1005f000700060000000e0001c0032005016800017
:10060000700060000000e000f3ff3a0018003700bf
:10061000cd02a80001003700000000001016800085
:10062000700060000000e000f9ff3200501680000a
:10063000700060000000e000f5ff3200cd02a9006c
:1006400000f4210000408800cd02a8000040800096
:1006500091000700cd02a900004080008e00070035
:100660000300370000000000010037000000000018
:1006700010168000640060000000e000e6ff320019
:1006800014003700cd02a800010037000000000070
:1006900010168000640060000000e000f9ff3200e6
:1006a00050168000700060000000e000f5ff32008e
:1006b000cd02a90000e8230000408800cd02a80078
:1006c0000040800074000700cd02a90000408000b7
:1006d0007100070010168000700060000000e0004c
:1006e000eaff320014003700cd02a80001003700f5
:1006f0000000000010168000700060000000e000a4
:10070000f9ff320010168000640060000000e00075
:10071000f5ff3200cd02a90000dc25000040880072
:10072000cd02a800004080005b000700cd02a900b8
:1007300000408000580007005016800070006000e4
:100740000000e000eaff3200a1ff37000400fa00d9
:10075000100798001e009000e80f500003003a00b8
:100760000040eb00004f7800100037009e00900022
:10077000401f2000808f500003003a0060c6b30085
:10078000004f7800090037009e0090000002200012
:10079000808f500003003a0050c5b300004f78002e
:1007a0000200370050c5b300004f780011028000ee
:1007b000000e20000100700010028800213a800025
:1007c000f08f2f0000806000203a88001e01fb009f
:1007d00080072000a10920003374200080497800a0
:1007e00081497800824978001200200060042000ce
:1007f0007105200023742000804978008149780029
:10080000824978004207a80000000000103a8000ea
:10081000610060000000e000fcff3a00110280006f
:10082000f0f12f0000806000100288000080fa00c4
:10083000000006000000fa006800a8006820a80078
:100840006bc0a8000080fa00000006000000fa005b
:1008500011a1a9001061a9001021a9001081a80010
:1008600010a1a80011e1a8000080fa000000060015
:100870000000fa0031058000f0ff28008080600051
:1008800000002300010070003005880094e0a800fb
:100890000080fa00000006000200fa00000f780055
:1008a0009e007800610888000621ef0084e0a9001e
:1008b000e6ff0700eeff07000140fe0011e1a9007e
:1008c0000621ef000080fa00000006000000fa0098
:1008d000c042a800c082a800c882a800c902a9001e
:1008e0000080eb00601988000080fa00000006001c
:020000040000fa
:1008f000000800000200000002000000401f00008d
:1009000002080000020000000000000000000000db
:00000001FF
